{
  "contractName": "AdditionGame",
  "abi": [
    {
      "constant": true,
      "inputs": [],
      "name": "owner",
      "outputs": [
        {
          "name": "",
          "type": "address"
        }
      ],
      "payable": false,
      "stateMutability": "view",
      "type": "function"
    },
    {
      "inputs": [],
      "payable": false,
      "stateMutability": "nonpayable",
      "type": "constructor"
    },
    {
      "constant": true,
      "inputs": [],
      "name": "getBalance",
      "outputs": [
        {
          "name": "",
          "type": "uint256"
        }
      ],
      "payable": false,
      "stateMutability": "view",
      "type": "function"
    },
    {
      "constant": false,
      "inputs": [],
      "name": "deposit",
      "outputs": [],
      "payable": true,
      "stateMutability": "payable",
      "type": "function"
    },
    {
      "constant": false,
      "inputs": [
        {
          "name": "_value",
          "type": "uint256"
        }
      ],
      "name": "transfer",
      "outputs": [
        {
          "name": "",
          "type": "bool"
        }
      ],
      "payable": false,
      "stateMutability": "nonpayable",
      "type": "function"
    }
  ],
  "bytecode": "0x608060405234801561001057600080fd5b50336000806101000a81548173ffffffffffffffffffffffffffffffffffffffff021916908373ffffffffffffffffffffffffffffffffffffffff16021790555061026d806100606000396000f300608060405260043610610062576000357c0100000000000000000000000000000000000000000000000000000000900463ffffffff16806312065fe01461006757806312514bba146100925780638da5cb5b146100d7578063d0e30db01461012e575b600080fd5b34801561007357600080fd5b5061007c610138565b6040518082815260200191505060405180910390f35b34801561009e57600080fd5b506100bd60048036038101908080359060200190929190505050610157565b604051808215151515815260200191505060405180910390f35b3480156100e357600080fd5b506100ec6101bf565b604051808273ffffffffffffffffffffffffffffffffffffffff1673ffffffffffffffffffffffffffffffffffffffff16815260200191505060405180910390f35b6101366101e4565b005b60003073ffffffffffffffffffffffffffffffffffffffff1631905090565b600081610162610138565b1015151561016f57600080fd5b3373ffffffffffffffffffffffffffffffffffffffff166108fc839081150290604051600060405180830381858888f193505050501580156101b5573d6000803e3d6000fd5b5060019050919050565b6000809054906101000a900473ffffffffffffffffffffffffffffffffffffffff1681565b6000809054906101000a900473ffffffffffffffffffffffffffffffffffffffff1673ffffffffffffffffffffffffffffffffffffffff163373ffffffffffffffffffffffffffffffffffffffff1614151561023f57600080fd5b5600a165627a7a72305820b7455bc873b2b4644665d919ed217dfe2e4a551a6f8cf170fe9989726c77acfe0029",
  "source": "pragma solidity >=0.4.24;\r\n\r\ncontract AdditionGame {\r\n    address public owner;\r\n\r\n    constructor() public {\r\n        owner = msg.sender;\r\n    }\r\n    \r\n    function getBalance() public view returns (uint) {\r\n        return address(this).balance;\r\n    }\r\n\r\n    function deposit() public payable {  \r\n        require(msg.sender == owner);\r\n    }   \r\n  \r\n    function transfer(uint _value) public returns (bool) {\r\n        require(getBalance() >= _value);\r\n        msg.sender.transfer(_value);\r\n        return true;\r\n    }\r\n}\r\n",
  "sourcePath": "C:/addition-game-starter/contracts/AdditionGame.sol",
  "compiler": {
    "name": "solc",
    "version": "0.4.24+commit.e67f0147.Emscripten.clang"
  },
  "schemaVersion": "3.2.3",
  "updatedAt": "2020-08-19T05:22:17.710Z",
  "networkType": "ethereum",
  "devdoc": {
    "methods": {}
  },
  "userdoc": {
    "methods": {}
  }
}